:020000040000FA
:100000000C942B010C945C010C945C010C945C012D
:100010000C945C010C945C010C945C010C945C01EC
:100020000C945C010C945C010C945C010C945C01DC
:100030000C945C010C945C010C945C010C945C01CC
:100040000C945C010C945C010C945C010C945C01BC
:100050000C945C010C945C010C945C010C944B09B5
:100060000C945C010C94BF090C9495090C945C01F0
:100070000C945C010C945C010C945C010C945C018C
:100080000C945C010C945C010C945C010C945C017C
:100090000C945C010C945C010C945C010C945C016C
:1000A0000C945C010C945C010C945C010C945C015C
:1000B0000C945C010C945C010C945C010C945C014C
:1000C0000C945C010C945C010C945C010C945C013C
:1000D0000C945C010C945C010C945C010C945C012C
:1000E0000C945C010C94D3010C94D9010C94F9018B
:1000F0000C94F5010C949C100C94D0010C94F1011B
:100100000C94B2010C9400030C94CC010C94F509EE
:100110000C94EB010C94F2020C9403020C94C801B1
:100120000C949E020C948F020C94E3010C94C40175
:100130000C94E7010C9485030C9462020C94DD018D
:100140000C94AD010C94FF010C94380300000A0BD1
:1001500002090C0D0E080703040100000000000056
:10016000000000000000000000000000000000008F
:10017000000000000000000012111000000000004C
:10018000000000000000000000000000000000006F
:10019000000000002200250028002B002E00310066
:1001A000340002010000050108010B0100002100DC
:1001B000240027002A002D00300033000101000038
:1001C000040107010A0105050505070508080808D7
:1001D000020202020A0A08080404040401010101DF
:1001E00001010101030303030303030304070707DA
:1001F0000C0C0C0C0C0C0C0C02020202060606067F
:10020000060606060B0B0B0B0B0B0B0B010210204B
:10021000200808102040102040800201020108043C
:1002200002010102040810204080804020100804D0
:100230000201800402018040201008040201080429
:10024000020101020408102040800102040810206D
:100250004080F5099C1011241FBECFEFD1E2DEBF14
:10026000CDBF00E00CBF24E0ACECB3E001C01D92B8
:10027000AF3BB207E1F713E0A0E0B2E0E4E2F9E25D
:1002800000E00BBF02C007900D92AC3CB107D9F75C
:1002900011E0CAE2D1E000E006C021970109802FF9
:1002A000FE010E944E12C932D10780E00807A9F76B
:1002B0000E94390A0C9480140C94000090E0FC0118
:1002C000E45FFD4F24918A539E4FFC018491882363
:1002D00099F090E0880F991FFC01E455FE4FA5911D
:1002E000B491FC01EE56FE4F859194918FB7F8942E
:1002F000EC91E22BEC938FBF0895282F30E0F901A9
:10030000E45BFE4F9491F901E45FFD4F44912A5361
:100310003E4FF9012491222309F435C0992311F1AC
:1003200091509231F8F4E92FF0E08827E556FE4F1E
:100330008F4F0C944E12CC01D001AD01C401C80105
:10034000B201D301D901DD01E301E701EB01F101C4
:10035000F501B201F901FF010302809180008F775E
:1003600080938000E22FF0E0EE0FFF1FEE56FE4F6D
:10037000A591B4918FB7F894EC91611148C0409564
:100380004E234C938FBF0895809180008F7DE8CFDE
:1003900080918000877FE4CF84B58F7784BDE2CFE2
:1003A00084B58F7DFBCF8091B0008F778093B000B4
:1003B000D9CF8091B0008F7DF9CF809190008F7759
:1003C00080939000CFCF809190008F7DF9CF809166
:1003D0009000877FF5CF8091A0008F778093A00059
:1003E000C1CF8091A0008F7DF9CF8091A000877F41
:1003F000F5CF809120018F7780932001B3CF80913A
:1004000020018F7DF9CF80912001877FF5CF4E2B82
:10041000B8CF3FB7F8948091FE039091FF03A0916D
:100420000004B091010426B5A89B05C02F3F19F028
:100430000196A11DB11D3FBFBA2FA92F982F882764
:10044000BC01CD01620F711D811D911D42E0660F3F
:10045000771F881F991F4A95D1F708958F929F9211
:10046000AF92BF92CF92DF92EF92FF926B017C012D
:100470000E9409024B015C01C114D104E104F104A2
:10048000B9F00E940902681979098A099B09683E36
:1004900073408105910580F321E0C21AD108E1087B
:1004A000F10888EE880E83E0981EA11CB11CE4CFF1
:1004B000FF90EF90DF90CF90BF90AF909F908F9084
:1004C00008950895AF92BF92CF92DF92EF92FF927C
:1004D0000F931F93CF93DF936C017B018B01040F6C
:1004E000151FEB015E01AE18BF08C017D10759F008
:1004F0006991D601ED91FC910190F081E02DC6014A
:100500001995892B79F7C501DF91CF911F910F9133
:10051000FF90EF90DF90CF90BF90AF900895FC01D7
:10052000538D448D252F30E0842F90E0821B930B58
:10053000541710F0CF96089501970895FC01918DFE
:10054000828D981761F0A28DAE0FBF2FB11D5D9601
:100550008C91928D9F5F9F73928F90E008958FEFA3
:100560009FEF08952FB7F8948091020490910304AF
:10057000A0910404B09105042FBF80930E049093C2
:100580000F04A0931004B093110486E094E00E943D
:100590009E0297FF26C02FB7F89480910204909195
:1005A0000304A0910404B09105042FBF40910E04F0
:1005B00050910F046091100470911104841B950BED
:1005C000A60BB70B40910A0450910B0460910C04E8
:1005D00070910D0484179507A607B707B0F28FEF47
:1005E0009FEF0895FC01918D828D981731F0828DD7
:1005F000E80FF11D858D90E008958FEF9FEF08952E
:10060000FC01918D228D892F90E0805C9F4F821B91
:1006100091098F739927089586E094E00E94000362
:1006200021E0892B09F420E0822F0895FC01A48D9C
:10063000A80FB92FB11DA35ABF4F2C91848D90E004
:1006400001968F739927848FA689B7892C93A089E7
:10065000B1898C91837080648C93938D848D981371
:1006600006C00288F389E02D80818F7D8083089504
:10067000EF92FF920F931F93CF93DF93EC0181E0F2
:10068000888F9B8D8C8D98131AC0E889F989808199
:1006900085FF15C09FB7F894EE89FF896083E889CC
:1006A000F98980818370806480839FBF81E090E0BE
:1006B000DF91CF911F910F91FF90EF900895F62E4B
:1006C0000B8D10E00F5F1F4F0F731127E02E8C8DE5
:1006D0008E110CC00FB607FCFACFE889F98980812A
:1006E00085FFF5CFCE010E941603F1CFEB8DEC0F05
:1006F000FD2FF11DE35AFF4FF0829FB7F8940B8F47
:10070000EA89FB8980818062CFCFCF93DF93EC01B0
:10071000888D8823B9F0AA89BB89E889F9898C91E9
:1007200085FD03C0808186FD0DC00FB607FCF7CFA5
:100730008C9185FFF2CF808185FFEDCFCE010E94A5
:100740001603E9CFDF91CF91089542E050E060E2D7
:1007500072E086E094E00C946202CF93DF93FC0198
:1007600001900020E9F73197AF01481B590BBC01FC
:1007700086E094E00E946202EC010E94A5038C0FC7
:100780009D1FDF91CF910895CF93DF93FC014481AA
:1007900055816081718186E094E00E946202EC01E3
:1007A0000E94A5038C0F9D1FDF91CF91089520918A
:1007B000B3043091B404232B39F421E0FC0180818F
:1007C000882361F020E00AC0BC018091AF049091C1
:1007D000B0040E94701421E0892BA1F7822F0895A4
:1007E000FC0180819181009711F00C94AC1060E0C5
:1007F00070E0CB0108950F931F93CF93DF938C018B
:10080000EB01FC01808191810097E1F068817981A1
:1008100061157105A9F0428153812C813D814217F8
:10082000530770F00E9479148C819D81F8019583A3
:1008300084831D821C82DF91CF911F910F910895B7
:100840000E94F21288819981F801918380838A81C4
:100850009B81938382838C819D819583848319827C
:1008600018821B821A82E5CFCF93DF93EC01888137
:100870009981009711F00E94F212198218821D824C
:100880001C821B821A82DF91CF910895FC01808126
:100890009181009711F00C94F21208950F931F9319
:1008A000CF93DF93EC0188819981009759F02A81D9
:1008B0003B812617370730F081E0DF91CF911F9100
:1008C0000F9108958B016F5F7F4F0E947B130097FC
:1008D00059F0998388831B830A832C813D81232BC4
:1008E00059F7FC011082E8CF80E0E7CFEF92FF924A
:1008F0000F931F93CF93DF936115710541F480E04F
:10090000DF91CF911F910F91FF90EF9008954115C6
:100910005105B1F07B01EC010C811D81040F151F05
:10092000B8010E944E04882351F3288139818C81BB
:100930009D81B701820F931F0E9479141D830C8340
:1009400081E0DECFCF93DF93EC01FB014481558141
:10095000608171810E947604811103C0CE010E94E2
:100960003404CE01DF91CF910895EF92FF920F935F
:100970001F93CF93DF93EC017B018A01BA010E94A0
:100980004E0481110BC0CE010E943404CE01DF91D0
:10099000CF911F910F91FF90EF9008951D830C83CD
:1009A000B701888199810E947914F0CFFB010190F1
:1009B0000020E9F73197AF01461B570B0C94B504A3
:1009C0000F931F93CF93DF93CDB7DEB762970FB628
:1009D000F894DEBF0FBECDBF8C01CB01F8011182B0
:1009E000108213821282158214824AE0BE016F5F68
:1009F0007F4F0E94D310BE016F5F7F4FC8010E94DE
:100A0000D60462960FB6F894DEBF0FBECDBFDF915D
:100A1000CF911F910F910895CF93DF931F921F9253
:100A2000CDB7DEB7FC0111821082138212821582CB
:100A3000148269831A82BE016F5F7F4F0E94D604C1
:100A40000F900F90DF91CF910895CF92DF92EF92A8
:100A5000FF92CF93DF9300D000D0CDB7DEB7809167
:100A6000E7039091E8032091A7043091A80482172E
:100A7000930730F4E091A304F091A404309719F5A2
:100A80001092DA03EAEDF3E06081CE0101960E9454
:100A90000C05CE0101960E94F0036B01CE01019678
:100AA0000E94460481E0CD2809F080E026960FB62A
:100AB000F894DEBF0FBECDBFDF91CF91FF90EF90D6
:100AC000DF90CF900895E80FF91FDECFFB01DC0126
:100AD00011961C921E9213961C921E9212971596B6
:100AE0001C921E9214978617970749F060817181B6
:100AF0006115710521F0448155810C94B504089568
:100B0000FC01118210821382128215821482FB0171
:100B100001900020E9F73197AF01461B570B0C9469
:100B2000B504CF92DF92EF92FF920F931F93CF9372
:100B3000DF936C017B018A014617570720F48F2D44
:100B40007A01062F182F62E272E0C6010E9480052A
:100B5000C091B904D091BA04EC16FD06F8F40C1754
:100B60001D0708F4E801E091B504F091B604EC0F1C
:100B7000FD1F108110826091B5047091B6046E0D56
:100B80007F1DC6016115710599F00E94D604809100
:100B9000B5049091B604C80FD91F1883C601DF9120
:100BA000CF911F910F91FF90EF90DF90CF9008951C
:100BB0000E943404ECCFCF92DF92EF92FF920F931A
:100BC0001F93CF93DF93CDB7DEB72C970FB6F89472
:100BD000DEBF0FBECDBF86E094E00E940003892BEC
:100BE00009F4C6C062E272E0CE0101960E9480055F
:100BF0000E94B20297FD0CC08F83188641E050E03E
:100C0000BE01695F7F4FCE0101960E947604F0CF4E
:100C1000BE016F5F7F4F85EB94E00E94FB03CE0126
:100C200001960E944604E090B904F090BA04E114E1
:100C3000F10471F0C090B504D090B6046AE370E09E
:100C4000C6010E9465148C010C191D09892B11F431
:100C50000FEF1FEF68012FEFC21AD20ACE14DF0484
:100C600008F095C0E090B504F090B6046AE370E037
:100C7000C7018C0D9D1D0E946514009709F487C063
:100C80009C012E193F097901A80170E060E0CE01B6
:100C900001960E949105BE016F5F7F4F8FEA94E03D
:100CA0000E94FB03CE0101960E944604A701B601F3
:100CB000CE0101960E949105BE016F5F7F4F89EAC8
:100CC00094E00E94FB03CE0101960E94460483E259
:100CD00092E00E94D703882309F45DC010920302BA
:100CE0001092020263EA74E0CE0101960E9466054A
:100CF0000D811E811093CD030093CC03CE0101968C
:100D00000E944604B801CE0101960E94E00468E208
:100D100072E0CE0107960E948005BE016F5F7F4F93
:100D2000CE0107960E94A2040E94C403CE0107963A
:100D30000E944604CE0101960E9446048AE392E096
:100D40000E94AD038AE793E00E94AD0362E272E085
:100D500085EB94E00E94D60462E272E08FEA94E0B0
:100D60000E94D60462E272E089EA94E00E94D6040E
:100D70002C960FB6F894DEBF0FBECDBFDF91CF919A
:100D80001F910F91FF90EF90DF90CF900895EE2488
:100D9000EA94FE2C79CF87E492E00E94D70388235F
:100DA00049F081E090E090930302809302028DE489
:100DB00092E0C6CF8BE592E00E94D703882339F1F9
:100DC00082E090E0909303028093020262E272E07C
:100DD00083EA94E00E94D6041092E8031092E7039D
:100DE0001092D9031092D8031092CF031092CE0321
:100DF0001092D3031092D2038091000290910102CD
:100E0000909305028093040280E692E099CF8DE6EC
:100E100092E00E94D703882329F0109203021092D7
:100E2000020290CF84E792E00E94D703882369F002
:100E300089EA94E00E94F00370930102609300023B
:100E400070930502609304027DCF8EE792E00E94CA
:100E5000D703882349F089EA94E00E94F003709355
:100E60000702609306026ECF88E892E00E94D703E3
:100E7000882399F069EA74E0CE0101960E94660524
:100E8000CE0101960E94F0037093E8036093E7039C
:100E9000CE0101960E94460455CF8EE892E00E9452
:100EA000D703882369F04091AD045091AE0460915E
:100EB000A9047091AA0483EA94E00E94760442CFC8
:100EC00085E992E00E94D703882339F081E090E021
:100ED0009093FC038093FB0335CF8FE992E00E944F
:100EE000D703882329F01092FC031092FB032ACF2A
:100EF00086EA92E00E94D703882371F08091F9037B
:100F00009091FA03892B09F07DC181E090E09093E4
:100F1000FA038093F90316CF8EEA92E00E94D7037A
:100F2000882351F08091F9039091FA03892B09F0FD
:100F300069C182E090E0EBCF86EB92E00E94D7039C
:100F4000882351F08091F9039091FA03892B09F0DD
:100F500059C183E090E0DBCF8EEB92E00E94D70393
:100F6000882351F08091F9039091FA03892B09F0BD
:100F700049C184E090E0CBCF86EC92E00E94D70399
:100F8000882351F08091F9039091FA03892B09F09D
:100F900039C185E090E0BBCF8EEC92E00E94D70390
:100FA000882351F08091F9039091FA03892B09F07D
:100FB00029C186E090E0ABCF86ED92E00E94D70396
:100FC000882351F08091F9039091FA03892B09F05D
:100FD00019C187E090E09BCF8EED92E00E94D7038D
:100FE000882339F081E090E09093F8038093F70331
:100FF000A9CE86EE92E00E94D703882351F080911B
:10100000F7039091F803892B09F007C182E090E083
:10101000EBCF8EEE92E00E94D703882351F08091AF
:10102000F7039091F803892B09F0F7C083E090E073
:10103000DBCF86EF92E00E94D703882351F08091A6
:10104000F7039091F803892B09F0E7C084E090E062
:10105000CBCF8EEF92E00E94D703882351F080918E
:10106000F7039091F803892B09F0D7C085E090E051
:10107000BBCF86E093E00E94D703882351F0809194
:10108000F7039091F803892B09F0C7C086E090E040
:10109000ABCF8EE093E00E94D703882351F080917C
:1010A000F7039091F803892B09F0B7C087E090E02F
:1010B0009BCF86E193E00E94D703882371F0809153
:1010C000F5039091F603892B09F0B3C081E090E01D
:1010D0009093F6038093F50335CE8EE193E00E9462
:1010E000D703882351F08091F5039091F603892B63
:1010F00009F09FC082E090E0EBCF86E293E00E948F
:10110000D703882351F08091F5039091F603892B42
:1011100009F08FC083E090E0DBCF8EE293E00E9485
:10112000D703882351F08091F5039091F603892B22
:1011300009F07FC085E090E0CBCF86E393E00E948A
:10114000D703882351F08091F5039091F603892B02
:1011500009F06FC086E090E0BBCF8EE393E00E9481
:10116000D703882351F08091F5039091F603892BE2
:1011700009F05FC087E090E0ABCF86E493E00E9487
:10118000D703882391F08091F3039091F403892B86
:1011900039F481E090E09093F4038093F303D2CD8F
:1011A0001092F4031092F303CDCD8BE493E00E94F0
:1011B000D703882309F11092FA031092F9031092D1
:1011C000F8031092F7031092F6031092F5031092B1
:1011D000F4031092F3031092F2031092F1031092B1
:1011E000F0031092EF031092EE031092ED031092B1
:1011F000EA031092E903A6CD83E593E00E94D703AA
:10120000882329F01092FA031092F9039BCD80E60F
:1012100093E00E94D703882329F01092F8031092DC
:10122000F70390CD8DE693E00E94D703882309F45D
:1012300089CD1092F6031092F50384CD0E940C0321
:1012400081110E94DB0580E090E0892B49F080E06D
:1012500090E0892B29F00E94000081110E9400007B
:1012600080E090E0892B49F080E090E0892B29F024
:101270000E94000081110E94000080E090E0892B14
:1012800049F080E090E0892B29F00E940000811154
:101290000C94000008951F920F920FB60F92112424
:1012A0002F933F938F939F93AF93BF9380910204AB
:1012B00090910304A0910404B09105043091FD03C2
:1012C00023E0230F2D3758F50196A11DB11D209362
:1012D000FD038093020490930304A0930404B0934D
:1012E00005048091FE039091FF03A0910004B0914A
:1012F00001040196A11DB11D8093FE039093FF038D
:10130000A0930004B0930104BF91AF919F918F917E
:101310003F912F910F900FBE0F901F90189526E8C8
:10132000230F0296A11DB11DD2CF1F920F920FB6AF
:101330000F9211240BB60F922F933F934F935F930D
:101340006F937F938F939F93AF93BF93EF93FF938D
:1013500086E094E00E941603FF91EF91BF91AF9158
:101360009F918F917F916F915F914F913F912F91BD
:101370000F900BBE0F900FBE0F901F9018951F92ED
:101380000F920FB60F9211240BB60F922F938F93DB
:101390009F93EF93FF93E0911604F09117048081DF
:1013A000E0911C04F0911D0482FD1DC0908180918C
:1013B0001F048F5F8F7320912004821741F0E0910A
:1013C0001F04F0E0EA5FFB4F958F80931F04FF91AD
:1013D000EF919F918F912F910F900BBE0F900FBEA9
:1013E0000F901F9018958081F2CFE6E0F4E0138211
:1013F000128288EE93E0A0E0B0E084839583A68318
:10140000B78382E192E09183808385EC90E09587B9
:10141000848784EC90E09787868780EC90E0918BBE
:10142000808B81EC90E0938B828B82EC90E0958BAB
:10143000848B86EC90E0978B868B118E128E138EA8
:10144000148E62E272E085EB94E00E94800562E215
:1014500072E08FEA94E00E94800562E272E089EA1D
:1014600094E00E94800562E272E083EA94E00C94CA
:101470008005CF93DF93CDB7DEB7AA970FB6F89468
:10148000DEBF0FBECDBF789484B5826084BD84B5C5
:10149000816084BD85B5826085BD85B5816085BD6F
:1014A00080916E00816080936E0010928100809127
:1014B00081008260809381008091810081608093AF
:1014C0008100809180008160809380008091B100D4
:1014D00084608093B1008091B00081608093B000FF
:1014E0008091910082608093910080919100816051
:1014F0008093910080919000816080939000809112
:10150000A10082608093A1008091A10081608093FE
:10151000A1008091A00081608093A00080912101B2
:10152000826080932101809121018160809321015B
:101530008091200181608093200180917A008460F5
:1015400080937A0080917A00826080937A00809103
:101550007A00816080937A0080917A00806880931D
:101560007A001092C100E0911604F091170482E015
:101570008083E0911204F09113041082E09114042E
:10158000F0911504108210921E04E0911A04F0915B
:101590001B0486E08083E0911804F0911904808197
:1015A00080618083E0911804F09119048081886043
:1015B0008083E0911804F091190480818068808311
:1015C000E0911804F091190480818F7D80838FE76A
:1015D00093E00E94AD0386E20E945E0184E20E94D5
:1015E0005E0182E20E945E0180E20E945E018EE165
:1015F0000E945E018CE10E945E018AE10E945E0110
:1016000089E20E945E018BE20E945E018DE20E94EF
:101610005E018FE20E945E0181E30E945E0183E32E
:101620000E945E0185E30E945E0187E20E945E01E6
:1016300085E20E945E0183E20E945E0181E20E94D7
:101640005E018FE10E945E018DE10E945E018BE1EF
:101650000E945E0161E086E20E947D0161E084E219
:101660000E947D0161E082E20E947D0161E080E2F2
:101670000E947D0161E08EE10E947D0161E08CE1CC
:101680000E947D0161E08AE10E947D0161E089E2C2
:101690000E947D0161E08BE20E947D0161E08DE2AC
:1016A0000E947D0161E08FE20E947D0161E081E3A3
:1016B0000E947D0161E083E30E947D0161E085E39A
:1016C0000E947D0161E087E20E947D0161E085E288
:1016D0000E947D0161E083E20E947D0161E081E280
:1016E0000E947D0161E08FE10E947D0161E08DE15A
:1016F0000E947D0161E08BE10E947D01ABE12A2E19
:10170000312CBFE14B2E512C11E2612E712C03E2E2
:10171000C02ED12C8091FB039091FC03009709F01F
:1017200080C38091020290910302009709F059C38F
:101730000091E7031091E8038091A7049091A80419
:101740000817190738F4E091A304F091A404309726
:1017500009F011C21092DA03EAEDF3E06081CE01E4
:1017600001960E940C05CE0101960E94F0034B01E8
:10177000CE0101960E9446040E942505811176C281
:10178000C4018130910509F0F9C19092E003809283
:10179000DF039092E2038092E10386E290E090936F
:1017A000DE038093DD0389E290E09093DC03809375
:1017B000DB030D5F1F4F8091A7049091A8040817C9
:1017C000190740F48091A3049091A404080F191FF5
:1017D000892B21F41092DA030AED13E0F8016081FD
:1017E000CE0101960E940C05CE0101960E94F003E5
:1017F0004B01CE0101960E9446042091D8033091FE
:10180000D903121613067CF0C4018130910509F04A
:101810003EC29092D7038092D60387E290E09093E5
:10182000D5038093D4032F5F3F4F243031050CF054
:101830007BC23093D9032093D80360E08091DD030D
:101840000E947D0160E08091DB030E947D01809118
:10185000CE039091CF0301969093CF038093CE0354
:1018600002970CF466C20E94250581110DC080917B
:10187000D6039091D7039093E4038093E30360E051
:101880008091D4030E947D011092CF031092CE0369
:101890008091D2039091D30301969093D3038093C8
:1018A000D20308970CF44AC20E94250581110EC08C
:1018B00081E090E09093E6038093E5033092D103BA
:1018C0002092D00360E08BE10E947D011092D3034F
:1018D0001092D2036091E7037091E803CE018596E0
:1018E0000E94E0046091E5037091E603CE014F96FB
:1018F0000E94E0046091E3037091E403CE014996F5
:101900000E94E0046091E1037091E203CE014396EE
:101910000E94E0046091DF037091E003CE010D9618
:101920000E94E0046091DF037091E003CE0107960E
:101930000E94E0046EE873E0CE0101960E948005EB
:10194000BE01695F7F4FCE0101960E94A2048C0107
:1019500041E050E069EC73E00E947604811103C01D
:10196000C8010E943404BE01635F7F4FC8010E941A
:10197000A204BE016D5E7F4F0E94A204BE01675E9D
:101980007F4F0E94A204BE01615E7F4F0E94A204AD
:101990008C0147E050E06CE973E00E94760481110D
:1019A00003C0C8010E943404BE016B5D7F4FC801B3
:1019B0000E94A2040E94C403CE0101960E94460424
:1019C000CE0107960E944604CE010D960E94460461
:1019D000CE0143960E944604CE0149960E944604D9
:1019E000CE014F960E944604CE0185960E94460481
:1019F0006091060270910702072E000C880B990B6C
:101A00000E942E0284EA93E00E94AD0361E080917F
:101A1000DD030E947D01B090DB0361E08B2D0E940D
:101A20007D0161E08091D4030E947D0161E080919D
:101A3000D0030E947D018090CC039090CD03009153
:101A4000E7031091E803C40101970817190724F56B
:101A5000E0900602F0900702609104027091050286
:101A600077FF02C06F5F7F4F759567956E197F098D
:101A7000072E000C880B990B0E942E0260E08B2D24
:101A80000E947D01B701FF0C880B990B0E942E026A
:101A900061E08B2D0E947D0160910402709105022E
:101AA00077FF02C06F5F7F4F759567958091060243
:101AB00090910702681B790B072E000C880B990B7D
:101AC0000E942E020F5F1F4F1093E8030093E7035D
:101AD0000815190544F182E090E090930302809389
:101AE000020262E272E083EA94E00E94D60410925D
:101AF000E8031092E7031092D9031092D8031092D2
:101B0000CF031092CE031092D3031092D203809190
:101B1000000290910102909305028093040288EAEA
:101B200093E00E94AD038091CC039091CD0320916E
:101B3000E7033091E803AC014850510942175307BD
:101B400009F005C16091000270910102072E000C9E
:101B5000880B990B0E941F1120E030E040EC5FE3FE
:101B60000E945A110E941812709305026093040299
:101B70000E941E09CFCDE00FF11FF0CD82309105FC
:101B800089F49092E0038092DF039092E2038092C6
:101B9000E10384E290E09093DE038093DD038BE227
:101BA00090E003CE8330910589F49092E003809217
:101BB000DF039092E2038092E10382E290E090934F
:101BC000DE038093DD038DE290E0EFCD843091055C
:101BD00089F49092E0038092DF039092E203809276
:101BE000E10380E290E09093DE038093DD038FE2D7
:101BF00090E0DBCD8530910589F49092E0038092EE
:101C0000DF039092E2038092E1038EE190E09093F3
:101C1000DE038093DD0381E390E0C7CD863091053C
:101C200089F49092E0038092DF039092E203809225
:101C3000E1038CE190E09093DE038093DD0383E386
:101C400090E0B3CD079709F0B4CD9092E003809275
:101C5000DF039092E2038092E1038AE190E09093A7
:101C6000DE038093DD0385E390E09FCD1092E203D5
:101C70001092E1031092E0031092DF031092DE0352
:101C80001092DD031092DC031092DB0392CD8230C0
:101C9000910539F49092D7038092D60385E290E0C3
:101CA000BECD8330910549F49092D7038092D6033C
:101CB000D092D503C092D403B6CDA40144505109AB
:101CC0004230510558F485E090E09093D70380931B
:101CD000D6037092D5036092D403A5CD86309105CA
:101CE00049F49092D7038092D6035092D503409244
:101CF000D40399CD8730910559F49092D7038092FF
:101D0000D603EDE1F0E0F093D503E093D4038BCD5F
:101D1000892B09F088CD1092D7031092D603109228
:101D2000D5031092D4037FCD1092D9031092D8031B
:101D300084CD1092E4031092E303AACD1092E6033F
:101D40001092E5031092D1031092D003C3CDAC01E1
:101D5000475051092417350759F48091000290919A
:101D60000102880F991F909305028093040200CF0F
:101D7000AC01465051092417350779F460910002EF
:101D800070910102072E000C880B990B0E941F1105
:101D900020E030E040E150E4E3CEAC014550510991
:101DA0002417350779F46091000270910102072E23
:101DB000000C880B990B0E941F112DEC3CEC4CE0A1
:101DC00050E4CECE04972817390709F0D1CE2091E0
:101DD000000230910102C901880F991F820F931FE1
:101DE000C2CF8130910599F484EA93E00E94AD035B
:101DF0008FEA93E00E94AD036091040270910502A6
:101E0000072E000C880B990B0E942E02B1CE029770
:101E100009F0AECE84EA93E00E94AD038AEB93E032
:101E2000E9CF019709F0A4CE6091F9037091FA030C
:101E3000CE014F960E94E0046091F7037091F80381
:101E4000CE0149960E94E0046091F5037091F6037B
:101E5000CE0143960E94E0046091F3037091F40375
:101E6000CE010D960E94E0041092F2031092F1034D
:101E70001092F0031092EF031092EE031092ED0314
:101E80001092EA031092E9038091F9039091FA030A
:101E90008130910509F0D9C086E290E09093F20379
:101EA0008093F1038091F7039091F80381309105BD
:101EB00009F0EFC089E290E09093F0038093EF0384
:101EC0008091F5039091F6038130910509F005C1E9
:101ED00087E290E09093EE038093ED038091EB0313
:101EE0009091EC0301969093EC038093EB0304979D
:101EF0000CF41BC18091F3039091F403019741F41A
:101F00003092EA032092E9031092EC031092EB0363
:101F100060E08091F1030E947D0160E08091EF0319
:101F20000E947D0160E08091ED030E947D0160E0F0
:101F30008091E9030E947D0166EC73E0CE01079673
:101F40000E948005BE01695F7F4FCE0101960E940D
:101F50006605BE01615E7F4FCE0101960E94A2041C
:101F6000BE01675E7F4F0E94A204BE016D5E7F4F7F
:101F70000E94A204BE01635F7F4F0E94A2040E94E0
:101F8000C403CE0101960E944604CE0107960E942A
:101F900046046091060270910702072E000C880B20
:101FA000990B0E942E0284EA93E00E94AD0361E047
:101FB0008091F1030E947D01F090EF0361E08F2D8D
:101FC0000E947D0161E08091ED030E947D0161E04E
:101FD0008091E9030E947D010091060210910702A1
:101FE000809104029091050297FD01969595879541
:101FF000801B910B4C01990FAA08BB08C501B401C5
:102000000E942E0260E08F2D0E947D01B801110F09
:10201000880B990B0E942E0261E08F2D0E947D019A
:10202000C501B4010E942E02CE010D960E94460405
:10203000CE0143960E944604CE0149960E94460472
:10204000CE014F960E94460493CD8230910519F43B
:1020500084E290E023CF8330910519F482E290E08E
:102060001DCF8430910519F480E290E017CF8530C0
:10207000910519F48EE190E011CF8630910519F4A5
:102080008CE190E00BCF079709F00CCF8AE190E04C
:1020900005CF8230910519F48BE290E00DCF8330AB
:1020A000910519F48DE290E007CF8430910519F481
:1020B0008FE290E001CF8530910519F481E390E043
:1020C000FBCE8630910519F483E390E0F5CE0797B7
:1020D00009F0F6CE85E390E0EFCE8230910519F459
:1020E00085E290E0F7CE8330910529F4D092EE039B
:1020F000C092ED03F3CE8530910529F47092EE0382
:102100006092ED03EBCE8630910529F45092EE03F8
:102110004092ED03E3CE079709F0E0CEEDE1F0E069
:10212000F093EE03E093ED03D9CE64EC73E0CE01BF
:102130000D960E94D604ECCE83EA94E00E944604F9
:1021400089EA94E00E9446048FEA94E00E944604E3
:1021500085EB94E00C9446041F93FC019927882793
:10216000BC01E89411911032E9F3193010F01E30DF
:10217000C8F31B3251F01D3249F4689406C00E9426
:10218000DE10610F711D811D911D119110531A30C8
:10219000B0F33EF490958095709561957F4F8F4F89
:1021A0009F4F1F910895BB274A3031F4992322F4A1
:1021B000BDE2909581959F4F0C94F410592F482FB4
:1021C000372F262F660F771F881F991F660F771FDF
:1021D000881F991F620F731F841F951F660F771F3B
:1021E000881F991F0895BB27FB015527AA27880F31
:1021F000991FAA1FA41710F0A41B83955051B9F77B
:10220000A05DAA3308F0A95DA193009779F7B111F9
:10221000B1931192CB010C940D11DC01FC01672FDD
:1022200071917723E1F7329704C07C916D937083AD
:102230006291AE17BF07C8F30895E89409C097FBF1
:102240003EF490958095709561957F4F8F4F9F4F8D
:102250009923A9F0F92F96E9BB279395F6958795D1
:1022600077956795B795F111F8CFFAF4BB0F11F494
:1022700060FF1BC06F5F7F4F8F4F9F4F16C088233B
:1022800011F096E911C0772321F09EE8872F762F71
:1022900005C0662371F096E8862F70E060E02AF0B2
:1022A0009A95660F771F881FDAF7880F969587959E
:1022B00097F908950E946D110C94DE110E94D011BF
:1022C00038F00E94D71120F0952311F00C94C7111B
:1022D0000C94CD1111240C9412120E94EF1170F382
:1022E000959FC1F3950F50E0551F629FF001729FBB
:1022F000BB27F00DB11D639FAA27F00DB11DAA1FCA
:10230000649F6627B00DA11D661F829F2227B00D16
:10231000A11D621F739FB00DA11D621F839FA00DA1
:10232000611D221F749F3327A00D611D231F849FF1
:10233000600D211D822F762F6A2F11249F57504048
:102340009AF0F1F088234AF0EE0FFF1FBB1F661FC3
:10235000771F881F91505040A9F79E3F510580F08C
:102360000C94C7110C9412125F3FE4F3983ED4F31F
:10237000869577956795B795F795E7959F5FC1F730
:10238000FE2B880F911D9695879597F9089597F9DB
:102390009F6780E870E060E008959FEF80EC08950B
:1023A00000240A9416161706180609060895002434
:1023B0000A9412161306140605060895092E0394AE
:1023C000000C11F4882352F0BB0F40F4BF2B11F422
:1023D00060FF04C06F5F7F4F8F4F9F4F089557FD81
:1023E0009058440F551F59F05F3F71F04795880F83
:1023F00097FB991F61F09F3F79F08795089512161A
:1024000013061406551FF2CF4695F1DF08C01616C5
:1024100017061806991FF1CF869571056105089476
:102420000895E894BB2766277727CB0197F908958D
:102430000E941F126894B1110C94121208950E9408
:10244000F71188F09F5798F0B92F9927B751B0F03E
:10245000E1F0660F771F881F991F1AF0BA95C9F728
:1024600014C0B13091F00E941112B1E008950C94A3
:102470001112672F782F8827B85F39F0B93FCCF356
:10248000869577956795B395D9F73EF490958095A5
:10249000709561957F4F8F4F9F4F0895EE0FFF1FEF
:1024A000881F8BBF0790F691E02D19940F931F930F
:1024B000CF93DF938230910510F482E090E0E091B9
:1024C000BD04F091BE0430E020E0B0E0A0E0309721
:1024D00099F42115310509F44AC0281B390B243021
:1024E0003105D8F58A819B816115710589F1FB0160
:1024F00093838283FE0111C0408151810281138147
:1025000048175907E0F04817590799F4109761F0F8
:1025100012960C93129713961C933296CF01DF916B
:10252000CF911F910F9108950093BD041093BE04A5
:10253000F4CF2115310551F04217530738F0A901A6
:10254000DB019A01BD01DF01F801C1CFEF01F9CF35
:102550009093BE048093BD04CDCFFE01E20FF31F24
:10256000819391932250310939832883D7CF2091C9
:10257000BB043091BC04232B41F420910A0230911A
:102580000B023093BC042093BB04209108023091CD
:1025900009022115310541F42DB73EB740910C02D7
:1025A00050910D02241B350BE091BB04F091BC044B
:1025B000E217F307A0F42E1B3F0B2817390778F01A
:1025C000AC014E5F5F4F2417350748F04E0F5F1F79
:1025D0005093BC044093BB04819391939FCFF0E050
:1025E000E0E09CCFCF93DF930097E9F0FC013297B6
:1025F00013821282A091BD04B091BE04ED0130E0BF
:1026000020E01097A1F420813181820F931F209147
:10261000BB043091BC042817390709F061C0F0935E
:10262000BC04E093BB04DF91CF910895EA01CE177B
:10263000DF07E8F54A815B819E0141155105B1F73D
:10264000E901FB83EA8349915991C40FD51FEC1727
:10265000FD0761F4808191810296840F951FE90145
:1026600099838883828193819B838A83F0E0E0E071
:1026700012968D919C9113970097B9F52D913C91ED
:102680001197CD010296820F931F2091BB043091C8
:10269000BC042817390739F6309751F51092BE045B
:1026A0001092BD04B093BC04A093BB04BCCFD383F1
:1026B000C28340815181840F951FC817D90761F4E7
:1026C0004E5F5F4F88819981480F591F5183408326
:1026D0008A819B81938382832115310509F0B0CFD4
:1026E000F093BE04E093BD049ECFFD01DC01C0CF9A
:1026F00013821282D7CF4F925F926F927F928F9206
:102700009F92AF92BF92CF92DF92EF92FF920F9380
:102710001F93CF93DF938C01009799F4CB01DF9146
:10272000CF911F910F91FF90EF90DF90CF90BF90CE
:10273000AF909F908F907F906F905F904F900C9490
:102740005612FC01E60FF71F9C0122503109E217D7
:10275000F30708F4AEC0D901CD91DC911197C617EB
:10276000D70720F1C530D10578F0CE010497861740
:10277000970750F0C61BD70B2297C193D1936D9347
:102780007C93CF010E94F212C801DF91CF911F917B
:102790000F91FF90EF90DF90CF90BF90AF909F9000
:1027A0008F907F906F905F904F9008955B01AC1A6F
:1027B000BD0A4C018C0E9D1EA091BD04B091BE04BB
:1027C000512C412CF12CE12C109731F58091BB0458
:1027D0009091BC048815990509F05CC0461657060F
:1027E00008F058C08091080290910902009741F4C6
:1027F0008DB79EB740910C0250910D02841B950B32
:10280000E817F90708F055C0F093BC04E093BB0447
:10281000F90171836083B8CF8D919C9111971296C5
:102820006C90129713967C901397A815B90559F5DB
:102830006C0142E0C40ED11CCA14DB0420F1AC01CF
:102840004A195B09DA011296159780F06282738249
:1028500051834083D9016D937C93E114F10471F0AD
:10286000D7011396FC93EE9312978ECF22968C0F7E
:102870009D1FF90191838083F301EFCFF093BE0494
:10288000E093BD0481CF4816590608F42C017D0160
:10289000D3019ACFCB010E9456127C01009749F0D8
:1028A000AE01B8010E945C14C8010E94F2128701B7
:1028B0006BCF10E000E068CFFB01DC0102C00190AB
:1028C0000D9241505040D8F70895FC018191861730
:1028D00021F08823D9F7992708953197CF010895DA
:1028E000FB01DC018D91019080190110D9F3990B46
:1028F0000895FB01DC0101900D920020E1F708959D
:1029000011E0CAE2D1E000E006C0802FFE010E9483
:102910004E122196011DCB32D10780E00807A9F79E
:10292000F894FFCFF4010200F4015A000000BF0444
:10293000800000000000380362028F02850300035C
:102940009E02F2020D0A00706C61790070616E6A7D
:10295000616E67206E6F74617369203A20004C616C
:10296000677520646920506C6179007061757365CA
:10297000004C616775206469205061757365007350
:10298000746F70004C6167752064692053746F70B8
:10299000006C616E6A7574006B656365706174616B
:1029A0006E00746F75636874696D6500696E646547
:1029B00078006E6F74617369006B616C696272613B
:1029C000736900706C61796572006E6F726D616C15
:1029D00031006E6F726D616C32006E6F726D616C82
:1029E00033006E6F726D616C34006E6F726D616C6E
:1029F00035006E6F726D616C36006E6F726D616C5A
:102A0000370070656B696E67310070656B696E6762
:102A1000320070656B696E67330070656B696E6755
:102A2000340070656B696E67350070656B696E6741
:102A3000360070656B696E6737006B656E6F6E6729
:102A400031006B656E6F6E6732006B656E6F6E671F
:102A500033006B656E6F6E6735006B656E6F6E670A
:102A600036006B656E6F6E673700676F6E6700725A
:102A7000657365746572007377697463686E6F72ED
:102A80006D616C0073776974636870656B696E67FC
:102A9000007377697463686B656E6F6E6700646F4F
:102AA0006E650041726475696E6F44657669636531
:102AB0007300506C6179696E673A4E6F74652000DF
:102AC0003A696E6465783A006F66660066696E6999
:102AD0007368007061757365206E69682100737496
:102AE0006F70206E69682100300063616C3A0000ED
:020000040003F7
:10E000000D9489F10D94B2F10D94B2F10D94B2F129
:10E010000D94B2F10D94B2F10D94B2F10D94B2F1F0
:10E020000D94B2F10D94B2F10D94B2F10D94B2F1E0
:10E030000D94B2F10D94B2F10D94B2F10D94B2F1D0
:10E040000D94B2F10D94B2F10D94B2F10D94B2F1C0
:10E050000D94B2F10D94B2F10D94B2F10D94B2F1B0
:10E060000D94B2F10D94B2F10D94B2F10D94B2F1A0
:10E070000D94B2F10D94B2F10D94B2F10D94B2F190
:10E080000D94B2F10D94B2F10D94B2F10D94B2F180
:10E090000D94B2F10D94B2F10D94B2F10D94B2F170
:10E0A0000D94B2F10D94B2F10D94B2F10D94B2F160
:10E0B0000D94B2F10D94B2F10D94B2F10D94B2F150
:10E0C0000D94B2F10D94B2F10D94B2F10D94B2F140
:10E0D0000D94B2F10D94B2F10D94B2F10D94B2F130
:10E0E0000D94B2F141546D656761323536300041AF
:10E0F000726475696E6F206578706C6F72657220DE
:10E1000073746B3530305632206279204D4C530099
:10E11000426F6F746C6F616465723E004875683F52
:10E1200000436F6D70696C6564206F6E203D200048
:10E130004350552054797065202020203D20005FF9
:10E140005F4156525F415243485F5F3D2000415658
:10E1500052204C696243205665723D20004743437C
:10E160002056657273696F6E203D20004350552024
:10E1700049442020202020203D20004C6F7720663D
:10E18000757365202020203D20004869676820665F
:10E190007573652020203D200045787420667573D6
:10E1A00065202020203D20004C6F636B2066757336
:10E1B000652020203D20004D617220203720323024
:10E1C000313300312E362E3800342E332E350056A2
:10E1D00023202020414444522020206F7020636F70
:10E1E00064652020202020696E73747275637469E1
:10E1F0006F6E2061646472202020496E74657272B3
:10E20000757074006E6F20766563746F7200726A49
:10E210006D702020006A6D70200057686174207056
:10E220006F72743A00506F7274206E6F7420737541
:10E2300070706F72746564004D7573742062652030
:10E2400061206C6574746572002000577269747483
:10E25000696E672045450052656164696E672045B7
:10E26000450045452065727220636E743D00504F35
:10E27000525400303D5A65726F2061646472003FF1
:10E280003D43505520737461747300403D454550C3
:10E29000524F4D207465737400423D426C696E6B41
:10E2A000204C454400453D44756D70204545505215
:10E2B0004F4D00463D44756D7020464C415348001B
:10E2C000483D48656C70004C3D4C69737420492F83
:10E2D0004F20506F72747300513D51756974005234
:10E2E0003D44756D702052414D00563D73686F7707
:10E2F00020696E7465727275707420566563746FF0
:10E30000727300593D506F727420626C696E6B00BD
:10E310002A0011241FBECFEFD1E2DEBFCDBF01E046
:10E320000CBF12E0A0E0B2E0EEE1FDEF03E00BBFB6
:10E3300002C007900D92A030B107D9F712E0A0E01B
:10E34000B2E001C01D92AE30B107E1F70F9460F367
:10E350000D948DFE01E20EBF0FEF0DBF11241FBE05
:10E360000D9460F30D9400F020E030E040ED57E0B4
:10E3700005C0FA013197F1F72F5F3F4F2817390792
:10E38000C0F308959C01260F311DC901A0E0B0E043
:10E390002F5F3F4FABBFFC018791882361F08093D3
:10E3A000C6008091C00086FFFCCF8091C0008064D1
:10E3B0008093C000EACF08958DE08093C6008091DD
:10E3C000C00086FFFCCF8091C00080648093C000B5
:10E3D0008AE08093C6008091C00086FFFCCF8091C8
:10E3E000C00080648093C00008950F94C2F10F9420
:10E3F000DCF10895FC019081992359F09093C600B7
:10E400008091C00086FFFCCF8091C0008064809323
:10E41000C0003196992379F70895282F982F929567
:10E420009F70892F805D8A3308F0895F8093C600D2
:10E430008091C00086FFFCCF8091C00080648093F3
:10E44000C000822F8F70982F905D9A3308F0995FEB
:10E450009093C6008091C00086FFFCCF8091C000E1
:10E4600080648093C00008959C01FB01853691056E
:10E470001CF46330710594F0C90164E670E00F94F8
:10E480002EFE605D7F4F6093C6008091C00086FFC6
:10E49000FCCF8091C00080648093C0002B30310598
:10E4A00014F43297B4F0C90164E670E00F942EFEC4
:10E4B0006AE070E00F942EFE605D7F4F6093C600AF
:10E4C0008091C00086FFFCCF8091C0008064809363
:10E4D000C000C9016AE070E00F942EFEC0968093E0
:10E4E000C6008091C00086FFFCCF8091C000806490
:10E4F0008093C00008951F93182F8EE692EE60E07F
:10E500000F94C2F11093C6008091C00086FFFCCF2B
:10E510008091C00080648093C0000F94DCF11F9153
:10E5200008952F923F924F925F926F927F928F92B7
:10E530009F92AF92BF92CF92DF92EF92FF920F9392
:10E540001F93DF93CF93CDB7DEB762970FB6F894E2
:10E55000DEBF0FBECDBF382E622ECA01DB015C01CB
:10E560006D01772420E2222E2E010894411C511CBB
:10E570008BC081E0A81680E0B80681E0C80680E084
:10E58000D80628F0C601AA27BB270F940DF2BB2797
:10E59000AD2D9C2D8B2D0F940DF28A2D0F940DF225
:10E5A0002092C6008091C00086FFFCCF8091C00001
:10E5B00080648093C0009DE29093C6008091C0006B
:10E5C00086FFFCCF8091C00080648093C0002092C1
:10E5D000C6008091C00086FFFCCF8091C00080649F
:10E5E0008093C00019828601750188249924A1E0D6
:10E5F0003A1651F03A1620F0B2E03B1661F409C029
:10E600000BBFF701779007C0C7010F9477FE782EF4
:10E6100002C0F7017080872D0F940DF22092C60082
:10E620008091C00086FFFCCF8091C0008064809301
:10E63000C000872D8052F401EF70F0708F3520F408
:10E64000E40DF51D708204C0E40DF51D8EE280839B
:10E650000894E11CF11C011D111D0894811C911CE2
:10E6600090E18916910409F0C2CF80E190E0A0E02A
:10E67000B0E0A80EB91ECA1EDB1E198AC2010F9493
:10E68000FAF10F94DCF16A94662009F072CF629679
:10E690000FB6F894DEBF0FBECDBFCF91DF911F91B3
:10E6A0000F91FF90EF90DF90CF90BF90AF909F9031
:10E6B0008F907F906F905F904F903F902F90089534
:10E6C0002F923F924F925F926F927F928F929F9282
:10E6D000AF92BF92CF92DF92EF92FF920F931F9370
:10E6E000DF93CF93CDB7DEB7CD53D1400FB6F894BB
:10E6F000DEBF0FBECDBF01E20EBF0FEF0DBF94B75F
:10E70000F894A89514BE80916000886180936000A1
:10E7100010926000789493FF05C0E0910002F091A0
:10E7200001021995279A2F9A8091C00082608093E8
:10E73000C00080E18093C40088E18093C1000000A4
:10E74000EE24FF24870144E0A42EB12CCC24DD2448
:10E7500024C0C5010197F1F70894E11CF11C011DCB
:10E76000111D21E2E2162EE4F20620E0020720E06D
:10E77000120718F031E0C32ED12CC801B70127ECE5
:10E780003BE140E050E00F9441FE611571058105C9
:10E79000910519F485B1805885B98091C00087FD35
:10E7A00003C0C114D104A9F2A6014F5F5F4FC25E3E
:10E7B000DE4F59834883CE51D140C25EDE4F8881FF
:10E7C0009981CE51D140019711F00D9410FEC05D9A
:10E7D000DE4F19821882C053D14060E0C15DDE4F28
:10E7E0001882CF52D14088249924C35DDE4F19820C
:10E7F0001882CD52D140C05EDE4F188219821A8233
:10E800001B82C052D140CE5CDE4F188219821A8220
:10E810001B82C253D140EE24FF2487010BBFF701B6
:10E8200007911691C45CDE4F19830883CC53D14005
:10E830000D940BFEC25EDE4F28813981CE51D1404E
:10E840002130310509F52091C600C25EDE4F1982E4
:10E850001882CE51D14022C02F5F3F4F4F4F5F4FA4
:10E86000213082E138078AE7480780E0580780F0C6
:10E87000C45CDE4FE881F981CC53D140EF5FFF4F9C
:10E8800019F0EE27FF27099420E030E040E050E047
:10E890008091C00087FFE0CF2091C600C35DDE4FAE
:10E8A00048815981CD52D1404F5F5F4FC35DDE4FEC
:10E8B00059834883CD52D140213209F063C64A3092
:10E8C000510508F05FC60894811C911C53E0851621
:10E8D000910409F059C600E010E018C081E280936D
:10E8E000C6008091C00086FFFCCF8091C00080648C
:10E8F0008093C0002F5F3F4F2931310579F70F9486
:10E90000DCF10F5F1F4F0530110519F020E030E0FA
:10E91000E5CF10920A0210920B0210920C02109294
:10E920000D02109206021092070210920802109235
:10E930000902109202021092030210920402109235
:10E9400005028FEE90EE60E00F94F5F180E191EE1C
:10E9500060E00F94C2F18091C00087FFFCCF9091DE
:10E96000C600903608F09F759032B8F09093C600BC
:10E970008091C00086FFFCCF8091C00080648093AE
:10E98000C000A0E2A093C6008091C00086FFFCCF2B
:10E990008091C00080648093C000983409F4D7C18E
:10E9A0009934B8F4923409F459C1933458F490333B
:10E9B00019F1903308F4E3C59F33A1F1903409F0C5
:10E9C000DEC5BDC0953409F470C1963409F0D7C5D1
:10E9D00098C1923509F42BC2933538F49C3409F46C
:10E9E000F5C1913509F0CBC518C2963509F445C279
:10E9F000993509F0C4C567C483E792EE62E00F94CD
:10EA0000F5F110920602109207021092080210927D
:10EA1000090210920A0210920B0210920C0210923C
:10EA20000D0213C18FE792EE62E00F94F5F18FEEC5
:10EA300090EE60E00F94F5F181E291EE60E00F94CA
:10EA4000C2F187EB91EE60E00F94F5F180E391EE77
:10EA500060E00F94C2F184EE90EE60E00F94F5F167
:10EA60008FE391EE60E00F94C2F186E090E061E008
:10EA700070E00F9434F20F94DCF18DE591EE60E0DC
:10EA80000F94C2F189EC91EE60E00F94F5F18EE401
:10EA900091EE60E00F94C2F183EC91EE60E00F9490
:10EAA000F5F18CE691EE60E00F94C2F18EE10F94E7
:10EAB0000DF288E90F940DF281E00F940DF20F949E
:10EAC000DCF18BE791EE60E00F94C2F119E0E0E039
:10EAD000F0E010935700E4918E2F0F940DF20F94F5
:10EAE000DCF18AE891EE60E00F94C2F1E3E0F0E03F
:10EAF00010935700E4918E2F0F940DF20F94DCF1D8
:10EB000089E991EE60E00F94C2F1E2E0F0E0109349
:10EB10005700E4918E2F0F940DF20F94DCF188EAE8
:10EB200091EE60E00F94C2F1E1E0F0E01093570045
:10EB30001491812F0F940DF20F94DCF107CF8BE825
:10EB400092EE62E00F94F5F18BE492EE60E00F94A8
:10EB5000F5F10F94DCF100E010E019C0C8016F2D51
:10EB60000F947FFEFF2031F489E492EE60E00F9471
:10EB7000C2F10BC0F092C6008091C00086FFFCCFAE
:10EB80008091C00080648093C0000F5F1F4FC80158
:10EB900081519F41A0E0B0E0ABBFFC01F790BAE229
:10EBA000FB1621F0E2E000301E07C1F60F94DCF105
:10EBB0000F94DCF187E592EE60E00F94F5F10F948D
:10EBC000DCF1CC24DD2400E010E01EC0C8010F946D
:10EBD00077FEF82E882331F489E492EE60E00F94FA
:10EBE000C2F10BC08093C6008091C00086FFFCCFAD
:10EBF0008091C00080648093C000FE1419F00894D6
:10EC0000C11CD11C0F5F1F4FC80181519F41A0E063
:10EC1000B0E0ABBFFC01E790FAE2EF1621F022E092
:10EC20000030120799F60F94DCF10F94DCF182E6C4
:10EC300092EE60E00F94C2F1C60161E070E00F94C3
:10EC400034F20F94DCF10F94DCF110920202109276
:10EC50000302109204021092050278CE89E992EE26
:10EC600062E00F94F5F1279A2F9A16C02F9880E052
:10EC700090E0E0EDF7E03197F1F7019684369105E9
:10EC8000C1F72F9A80E090E0E0EDF7E03197F1F7DF
:10EC9000019684369105C1F78091C00087FFE6CFC9
:10ECA0008091C00087FFFCCF64C485EA92EE62E0E9
:10ECB0000F94F5F140910202509103026091040219
:10ECC0007091050281E020E10F9491F2809102029F
:10ECD00090910302A0910402B091050280509F4FD1
:10ECE000AF4FBF4F8093020290930302A0930402A0
:10ECF000B093050280509041A040B04008F426CE69
:10ED0000A4CF83EB92EE62E00F94F5F140910602FE
:10ED100050910702609108027091090280E020E1A1
:10ED20000F9491F28091060290910702A09108023F
:10ED3000B091090280509F4FAF4FBF4F80930602A2
:10ED400090930702A0930802B0930902FFCD80ECD4
:10ED500092EE62E00F94F5F183E792EE60E00F949B
:10ED6000F5F18FE792EE60E00F94F5F18BE892EE0B
:10ED700060E00F94F5F189E992EE60E00F94F5F10F
:10ED800085EA92EE60E00F94F5F183EB92EE60E09D
:10ED90000F94F5F180EC92EE60E00F94F5F187ECC2
:10EDA00092EE60E00F94F5F188ED92EE60E00F9442
:10EDB000F5F18FED92EE60E00F94F5F18AEE92EEB0
:10EDC00060E00F94F5F183E093EEBDCD87EC92EE19
:10EDD00062E00F94F5F181E40F947BF282E40F94EA
:10EDE0007BF283E40F947BF284E40F947BF285E45E
:10EDF0000F947BF286E40F947BF287E40F947BF20E
:10EE000088E40F947BF28AE40F947BF28BE40F94F6
:10EE10007BF28CE40F947BF299CD88ED92EE62E068
:10EE20000F94F5F1772473948824992409C48FED05
:10EE300092EE62E00F94F5F140910A0250910B02BC
:10EE400060910C0270910D0282E020E10F9491F22A
:10EE500080910A0290910B02A0910C02B0910D02D8
:10EE600080509F4FAF4FBF4F80930A0290930B0289
:10EE7000A0930C02B0930D0269CD8AEE92EE62E08F
:10EE80000F94F5F184EE90EE60E00F94F5F18FECC5
:10EE900091EE60E00F94F5F1662477244301CC5D98
:10EEA000DE4F19821882C452D140D401C301B695F5
:10EEB000A79597958795CA5DDE4F88839983AA8326
:10EEC000BB83C652D140CC5DDE4FA881B981C4520C
:10EED000D1401196CC5DDE4FB983A883C452D14096
:10EEE000CD0162E070E00F9434F2B0E2B093C6005E
:10EEF0008091C00086FFFCCF8091C0008064809329
:10EF0000C000EDE2E093C6008091C00086FFFCCF18
:10EF10008091C00080648093C000F0E2F093C6004E
:10EF20008091C00086FFFCCF8091C00080648093F8
:10EF3000C000CA5DDE4FE880F9800A811B81C6529D
:10EF4000D140BB27A12F902F8F2D0F940DF2CA5DBA
:10EF5000DE4F8881C652D1400F940DF2B0E2FB2EF5
:10EF6000F092C6008091C00086FFFCCF8091C00067
:10EF700080648093C0000DE30093C6008091C000C0
:10EF800086FFFCCF8091C00080648093C00010E2B7
:10EF90001093C6008091C00086FFFCCF8091C00016
:10EFA00080648093C0008BBEF3012791C65DDE4F65
:10EFB0002883CA52D140A22EBB24CC24DD2408943D
:10EFC000611C711C811C911C8BBEF3018791282E42
:10EFD0003324442455240894611C711C811C911C09
:10EFE0008BBEF3013791C55DDE4F3883CB52D140E4
:10EFF0000894611C711C811C911C8BBEF30147910C
:10F00000C45DDE4F4883CC52D140ADEFEA2EAFEF66
:10F01000FA2EAFEF0A2FAFEF1A2F6E0C7F1C801E57
:10F02000911E142D032DF22CEE24EA0CFB1C0C1D5A
:10F030001D1D0F940DF220E22093C6008091C000A8
:10F0400086FFFCCF8091C00080648093C000C65DC5
:10F05000DE4F8881CA52D1400F940DF230E23093D6
:10F06000C6008091C00086FFFCCF8091C000806404
:10F070008093C000C45DDE4F8881CC52D1400F9494
:10F080000DF240E24093C6008091C00086FFFCCFA5
:10F090008091C00080648093C000C55DDE4F888190
:10F0A000CB52D1400F940DF250E25093C6008091A4
:10F0B000C00086FFFCCF8091C00080648093C000B8
:10F0C0008FEFE8168FEFF80680E0080780E018075A
:10F0D00031F484E092EE60E00F94C2F1DFC0D80119
:10F0E000C7018070907CA070B0708050904CA040A0
:10F0F000B040D1F52FEF3FE340E050E0E222F322B1
:10F1000004231523CA5DDE4FA880B980CA80DB8046
:10F11000C652D140AE0CBF1CC01ED11EAA0CBB1CD7
:10F12000CC1CDD1C8EE092EE60E00F94C2F1BB2798
:10F13000A12F902F8F2D0F940DF28E2D0F940DF285
:10F1400030E23093C6008091C00086FFFCCF8091F2
:10F15000C00080648093C0004EE34093C60080915D
:10F16000C00086FFFCCF87C08EE09EEFA0E0B0E03D
:10F17000E822F9220A231B239CE0E91694E9F90608
:10F1800090E0090790E0190709F088C0C45DDE4FE0
:10F19000A881CC52D140EA2EFF2400E010E0102FCD
:10F1A0000F2DFE2CEE24C55DDE4FB881CB52D14031
:10F1B000EB0EF11C011D111DD601C501817090706F
:10F1C000A070B070DC0199278827E80EF91E0A1F8D
:10F1D0001B1F20EF30E040E050E0A222B322C42207
:10F1E000D52241E1AA0CBB1CCC1CDD1C4A95D1F7F1
:10F1F000EA0CFB1C0C1D1D1D81E090E0A0E0B0E0BE
:10F20000282239224A225B2235E1220C331C441C7D
:10F21000551C3A95D1F7E20CF31C041D151D57013E
:10F220006801AA0CBB1CCC1CDD1C85E192EE60E0E1
:10F230000F94C2F1C801AA27BB270F940DF2BB2778
:10F24000A12F902F8F2D0F940DF28E2D0F940DF274
:10F2500090E29093C6008091C00086FFFCCF809121
:10F26000C00080648093C000AEE3A093C60080918C
:10F27000C00086FFFCCF8091C00080648093C000F6
:10F28000C601AA27BB270F940DF2BB27AD2D9C2DDD
:10F290008B2D0F940DF28A2D0F940DF20F94DCF14B
:10F2A000CC5DDE4FE881F981C452D140F99709F471
:10F2B0004DCBF4E0EF2EF12C012D112D6E0C7F1CA7
:10F2C000801E911EF2CD83E093EE62E00F94F5F183
:10F2D0008AE192EE60E00F94C2F18091C00087FF56
:10F2E000FCCF1091C6001F751093C6008091C0001E
:10F2F00086FFFCCF8091C00080648093C0000F9493
:10F30000DCF1812F81548A3108F036C1163409F4BA
:10F3100095C0173490F4133409F44EC0143430F40B
:10F320001134F1F0123409F01DC130C0143409F465
:10F3300059C0153409F016C16BC01A3409F4C4C0A1
:10F340001B3438F4173409F48FC0183409F00AC19B
:10F35000A1C01B3409F4D2C01C3409F003C1E8C0B9
:10F360008FEF81B90DC082B1809582B980E090E0C5
:10F37000E0EDF7E03197F1F70196883C9105C1F790
:10F380008091C00087FFEFCF12B8EFC08FEF84B934
:10F390000DC085B1809585B980E090E0E0EDF7E0A3
:10F3A0003197F1F70196883C9105C1F78091C00033
:10F3B00087FFEFCF15B8D9C08FEF87B90DC088B1DF
:10F3C000809588B980E090E0E0EDF7E03197F1F7C3
:10F3D0000196883C9105C1F78091C00087FFEFCF6F
:10F3E00018B8C3C08FEF8AB90DC08BB180958BB9A7
:10F3F00080E090E0E0EDF7E03197F1F70196883C8E
:10F400009105C1F78091C00087FFEFCF1BB8ADC059
:10F410008FEF8DB90DC08EB180958EB980E090E0F0
:10F42000E0EDF7E03197F1F70196883C9105C1F7DF
:10F430008091C00087FFEFCF1EB897C08FEF80BBD1
:10F440000DC081B3809581BB80E090E0E0EDF7E0F6
:10F450003197F1F70196883C9105C1F78091C00082
:10F4600087FFEFCF11BA81C08FEF83BB0DC084B38C
:10F47000809584BB80E090E0E0EDF7E03197F1F714
:10F480000196883C9105C1F78091C00087FFEFCFBE
:10F4900014BA6BC08FEF809301010FC080910201FD
:10F4A00080958093020180E090E0E0EDF7E03197F5
:10F4B000F1F70196883C9105C1F78091C00087FF64
:10F4C000EDCF1092020151C08FEF809304010FC065
:10F4D0008091050180958093050180E090E0E0ED4A
:10F4E000F7E03197F1F70196883C9105C1F78091DB
:10F4F000C00087FFEDCF1092050137C08FEF8093DA
:10F5000007010FC08091080180958093080180E079
:10F5100090E0E0EDF7E03197F1F70196883C910536
:10F52000C1F78091C00087FFEDCF109208011DC088
:10F530008FEF80930A010FC080910B01809580931B
:10F540000B0180E090E0E0EDF7E03197F1F70196F4
:10F55000883C9105C1F78091C00087FFEDCF1092E4
:10F560000B0103C085E292EEEEC98091C00087FFD7
:10F57000FCCF8091C600EAC988E392EEE4C98CE131
:10F5800091EEE1C988249924933011F1943028F444
:10F59000913089F09230B8F408C0953061F195301F
:10F5A000F0F0963009F048C043C02B3109F042C951
:10F5B00091E06BE13FC96227C15DDE4F2883CF52E6
:10F5C000D14092E037C9B22FA0E0622793E032C960
:10F5D000822F90E0A82BB92B622794E02BC92E3004
:10F5E00009F039C3622795E0C05DDE4F19821882A9
:10F5F000C053D1401FC9E1E0F0E0EC0FFD1FC05D3A
:10F60000DE4F08811981C053D140E00FF11F2083E4
:10F610000F5F1F4FC05DDE4F19830883C053D14079
:10F6200062270A171B0709F005C9D80196E002C92D
:10F63000261709F010C303C0973009F0FBC87724E0
:10F640009981933109F412C19431C8F4963009F4C8
:10F65000D8C0973050F4923009F406C1933009F4C1
:10F660006DC0913009F059C253C0913109F477C08F
:10F67000923108F0BBC0903109F04FC2F5C098310B
:10F6800009F487C0993150F4953109F4EFC09531F0
:10F6900008F4C6C1963109F040C2C2C19A3109F4DA
:10F6A0006CC09A3108F491C09B3109F45BC09D3164
:10F6B00009F033C29D81903359F48F81882311F46E
:10F6C0009EE11CC0813011F091E018C098E916C08D
:10F6D000892F807591F0903539F4E0E0F0E089E011
:10F6E0008093570094910AC0983539F4E3E0F0E034
:10F6F00089E080935700949101C090E01A821B82A8
:10F700008D818C831D829E831F8227E030E009C299
:10F710001A8288E08B8381E48C8386E58D8382E581
:10F720008E8389E48F8383E5888780E589878FE5E9
:10F730008A8782E38B872BE030E0F3C18A818139AD
:10F7400041F0823941F0803911F48FE005C080E04A
:10F7500003C082E001C08AE01A828B8344C0772410
:10F76000739482C08D81882311F48EE12CC0813086
:10F7700011F081E028C088E926C01A82E1E0F0E0BB
:10F7800089E08093570084918B831C8224E030E0D1
:10F79000C8C18B81803589F48C81883039F4E2E0EE
:10F7A000F0E089E08093570084910DC0E0E0F0E044
:10F7B00089E080935700849106C0E3E0F0E089E09F
:10F7C0008093570084911A82DFCF8D81836C99E0FA
:10F7D000E1E0F0E0082E90935700E89507B600FCB2
:10F7E000FDCF1A821B8223E030E09BC180EC8A832C
:10F7F000CE5CDE4F188219821A821B82C253D1401E
:10F800008EC18A8190E0A0E0B0E0582F44273327D2
:10F8100022278B8190E0A0E0B0E0DC0199278827C7
:10F82000282B392B4A2B5B2B8D8190E0A0E0B0E098
:10F83000282B392B4A2B5B2B8C8190E0A0E0B0E089
:10F84000BA2FA92F982F8827282B392B4A2B5B2BCF
:10F85000220F331F441F551FC05EDE4F288339839C
:10F860004A835B83C052D1401A8259C13A81C95C34
:10F87000DE4F3883C753D140CA5CDE4F1882C6536F
:10F88000D1408B81C82EDD24CA5CDE4F488159816E
:10F89000C653D140C42AD52A933109F082C0CE5C28
:10F8A000DE4F88819981AA81BB81C253D1408050AB
:10F8B000904CA340B04030F583E0CE5CDE4FE88052
:10F8C000F9800A811B81C253D140F70100935B008C
:10F8D00080935700E89507B600FCFDCFCE5CDE4F65
:10F8E000088119812A813B81C253D14000501F4FAA
:10F8F0002F4F3F4FCE5CDE4F088319832A833B8313
:10F90000C253D140C05EDE4F488159816A817B81FC
:10F91000C052D140DE011B9631E08C9111962C91A2
:10F9200011971296C75CDE4F2883C953D140C85C3B
:10F93000DE4F1882C853D14090E0C85CDE4FE881AA
:10F94000F981C853D1408E2B9F2B0C01FA01609393
:10F950005B0030935700E89511244E5F5F4F6F4F67
:10F960007F4F0EEFE02E0FEFF02ECE0CDF1CC114F8
:10F97000D10499F685E0C05EDE4F088119812A81A5
:10F980003B81C052D140F80120935B008093570027
:10F99000E89507B600FCFDCF81E180935700E8951C
:10F9A00035C0C05EDE4F88819981AA81BB81C0527B
:10F9B000D140B695A795979587957C018601ABE0D8
:10F9C000AA2EB12CAC0EBD1E0BC0D5016D915D01F0
:10F9D000C7010F947FFE0894E11CF11C01501040F8
:10F9E0000115110591F7A60160E070E0440F551F65
:10F9F000661F771FC05EDE4FE880F9800A811B8199
:10FA0000C052D1404E0D5F1D601F711F1A82C05E33
:10FA1000DE4F488359836A837B83C052D1407FC0C5
:10FA2000FA80C55CDE4FF882CB53D140C65CDE4F16
:10FA30001882CA53D1408B81C82EDD24C65CDE4FAC
:10FA400008811981CA53D140C02AD12A1A828981DA
:10FA5000BE016D5F7F4F843121F59601C05EDE4FA0
:10FA6000E880F9800A811B81C052D1400BBFF701A9
:10FA700087919691DB018C9311969C936E5F7F4FDB
:10FA8000D801C7010296A11DB11DC05EDE4F88835B
:10FA90009983AA83BB83C052D14022503040F1F6F3
:10FAA00036C0C05EDE4F288139814A815B81C052F9
:10FAB000D1400894C108D108760100E010E0089414
:10FAC000C11CD11C0894E11CF11C011D111DE20E8A
:10FAD000F31E041F151F21BDBB27A52F942F832FB5
:10FAE00082BD2F5F3F4F4F4F5F4FF89A80B5DB01CC
:10FAF0008D93BD012E153F054007510761F7C05E8C
:10FB0000DE4F288339834A835B83C052D1409601FC
:10FB10002D5F3F4FFB01108204C080EC8A8322E0FE
:10FB200030E08BE18093C6008091C00086FFFCCF5F
:10FB30008091C00080648093C000C15DDE4FF88179
:10FB4000CF52D140F093C6008091C00086FFFCCF19
:10FB50008091C00080648093C000432F3093C60022
:10FB60008091C00086FFFCCF8091C00080648093AC
:10FB7000C000922F2093C6008091C00086FFFCCF6A
:10FB80008091C00080648093C0008EE08093C600A6
:10FB90008091C00086FFFCCF8091C000806480937C
:10FBA000C00065E1C15DDE4FE880CF52D1406E25D7
:10FBB00069276427FE01319610C090819093C6009A
:10FBC0008091C00086FFFCCF31968091C000806498
:10FBD0008093C0006927215030402115310569F715
:10FBE0006093C6008091C00086FFFCCF8091C0006A
:10FBF00080648093C00085B1805885B9772081F4F6
:10FC0000C15DDE4F0881CF52D1400F5FC15DDE4F35
:10FC10000883CF52D14090E0A0E0B0E00D941AF4F8
:10FC200027982F9880E090E020ED37E0F901319798
:10FC3000F1F7019684369105C9F700008091C00064
:10FC40008D7F8093C00081E180935700E895EE2777
:10FC5000FF270994FFCF90E00D941AF497FB092E2B
:10FC600007260AD077FD04D02ED006D000201AF443
:10FC7000709561957F4F0895F6F7909581959F4F08
:10FC80000895A1E21A2EAA1BBB1BFD010DC0AA1FDD
:10FC9000BB1FEE1FFF1FA217B307E407F50720F0F5
:10FCA000A21BB30BE40BF50B661F771F881F991F70
:10FCB0001A9469F760957095809590959B01AC01B9
:10FCC000BD01CF010895AA1BBB1B51E107C0AA1FAC
:10FCD000BB1FA617B70710F0A61BB70B881F991FED
:10FCE0005A95A9F780959095BC01CD010895F99991
:10FCF000FECF92BD81BDF89A992780B50895262F31
:10FD0000F999FECF1FBA92BD81BD20BD0FB6F89400
:0EFD1000FA9AF99A0FBE01960895F894FFCF63
:00000001FF
